:020000040800F2
:10000000008001209D390008ED390008ED39000815
:10001000ED390008ED390008ED3900080000000056
:10002000000000000000000000000000ED390008A2
:10003000ED39000800000000ED390008351800080F
:10004000ED390008ED390008ED390008ED390008F8
:10005000ED390008ED390008ED390008ED390008E8
:10006000ED390008ED390008ED390008ED390008D8
:10007000ED390008ED390008ED390008ED390008C8
:10008000ED390008ED390008ED39000800000000E6
:10009000000000000000000000000000ED39000832
:1000A000ED390008ED390008ED390008ED39000898
:1000B000ED390008ED390008ED3900084118000855
:1000C00051180008ED390008ED390008ED39000835
:1000D000ED390008ED390008ED3900080000000096
:1000E000ED390008ED390008ED3900080000000086
:1000F000000000000000000000000000ED390008D2
:1001000000000000ED390008ED390008ED39000865
:1001100000000000000000000000000000000000DF
:10012000ED390008ED390008ED390008ED39000817
:10013000ED39000800000000000000000000000091
:10014000000000000000000000000000ED39000881
:10015000ED390008ED390008ED390008ED390008E7
:10016000ED390008ED390008000000000000000033
:10017000000000000000000000000000000000007F
:1001800000000000ED390008000000000000000041
:04019000ED3900083D
:10019800044B05481B1A062B02D9044B03B1184718
:1001A800704700BF07000020040000200000000086
:1001B80005490648091A891001EBD171491002D086
:1001C800034B03B1184770470400002004000020C7
:1001D8000000000010B5064C237843B9FFF7D8FF9C
:1001E800044B13B10448AFF300800123237010BD02
:1001F80004000020000000003C3A000808B5084B45
:100208001BB108490848AFF300800848036813B9D0
:10021800BDE80840CCE7064B002BF9D09847F7E734
:1002280000000000080000203C3A000804000020FC
:100238000000000081F0004102E000BF83F00043AD
:1002480030B54FEA41044FEA430594EA050F08BF69
:1002580090EA020F1FBF54EA000C55EA020C7FEA2D
:10026800645C7FEA655C00F0E2804FEA5454D4EBAA
:100278005555B8BF6D420CDD2C4480EA020281EA74
:10028800030382EA000083EA010180EA020281EAAC
:100298000303362D88BF30BD11F0004F4FEA0131FE
:1002A8004FF4801C4CEA113102D0404261EB41010D
:1002B80013F0004F4FEA03334CEA133302D0524293
:1002C80063EB430394EA050F00F0A780A4F101044F
:1002D800D5F1200E0DDB02FA0EFC22FA05F2801889
:1002E80041F1000103FA0EF2801843FA05F359416F
:1002F8000EE0A5F120050EF1200E012A03FA0EFCEE
:1003080028BF4CF0020C43FA05F3C01851EBE37117
:1003180001F0004507D54FF0000EDCF1000C7EEB34
:1003280000006EEB0101B1F5801F1BD3B1F5001F72
:100338000CD349085FEA30004FEA3C0C04F1010491
:100348004FEA445212F5800F80F09A80BCF1004FBA
:1003580008BF5FEA500C50F1000041EB045141EA3C
:10036800050130BD5FEA4C0C404141EB010111F43D
:10037800801FA4F10104E9D191F0000F04BF0146E8
:100388000020B1FA81F308BF2033A3F10B03B3F1C6
:1003980020020CDA0C3208DD02F1140CC2F10C0256
:1003A80001FA0CF021FA02F10CE002F11402D8BFB4
:1003B800C2F1200C01FA02F120FA0CFCDCBF41EA80
:1003C8000C019040E41AA2BF01EB0451294330BD4F
:1003D8006FEA04041F3C1CDA0C340EDC04F114042C
:1003E800C4F1200220FA04F001FA02F340EA030003
:1003F80021FA04F345EA030130BDC4F10C04C4F149
:10040800200220FA02F001FA04F340EA0300294628
:1004180030BD21FA04F0294630BD94F0000F83F472
:10042800801306BF81F480110134013D4EE77FEA55
:10043800645C18BF7FEA655C29D094EA050F08BFA1
:1004480090EA020F05D054EA000C04BF1946104682
:1004580030BD91EA030F1EBF0021002030BD5FEAC6
:10046800545C05D14000494128BF41F0004130BDEE
:1004780014F580043CBF01F5801130BD01F0004542
:1004880045F0FE4141F470014FF0000030BD7FEAB5
:10049800645C1ABF194610467FEA655C1CBF0B46B0
:1004A800024650EA013406BF52EA033591EA030FC7
:1004B80041F4002130BD00BF90F0000F04BF0021BF
:1004C800704730B54FF4806404F132044FF00005F2
:1004D8004FF0000150E700BF90F0000F04BF00216B
:1004E800704730B54FF4806404F1320410F00045D1
:1004F80048BF40424FF000013EE700BF42004FEACC
:10050800E2014FEA31014FEA02701FBF12F07F4348
:1005180093F07F4F81F06051704792F0000F14BF45
:1005280093F07F4F704730B54FF4607401F0004589
:1005380021F0004120E700BF50EA010208BF7047E0
:1005480030B54FF000050AE050EA010208BF7047D5
:1005580030B511F0004502D5404261EB41014FF43E
:10056800806404F132045FEA915C3FF4DCAE4FF042
:1005780003025FEADC0C18BF03325FEADC0C18BF29
:10058800033202EBDC02C2F1200300FA03FC20FA7A
:1005980002F001FA03FE40EA0E0021FA02F11444C7
:1005A800C1E600BF70B54FF0FF0C4CF4E06C1CEADC
:1005B80011541DBF1CEA135594EA0C0F95EA0C0F51
:1005C80000F0DEF82C4481EA030621EA4C5123EAC4
:1005D8004C5350EA013518BF52EA033541F48011F3
:1005E80043F4801338D0A0FB02CE4FF00005E1FBA6
:1005F80002E506F00042E0FB03E54FF00006E1FBF0
:1006080003569CF0000F18BF4EF0010EA4F1FF0432
:10061800B6F5007F64F5407404D25FEA4E0E6D4172
:1006280046EB060642EAC62141EA55514FEAC52083
:1006380040EA5E504FEACE2EB4F1FD0C88BFBCF5FF
:10064800E06F1ED8BEF1004F08BF5FEA500E50F1B0
:10065800000041EB045170BD06F0004646EA010176
:1006680040EA020081EA0301B4EB5C04C2BFD4EBA8
:100678000C0541EA045170BD41F480114FF0000EA1
:10068800013C00F3AB8014F1360FDEBF002001F00F
:10069800004170BDC4F10004203C35DA0C341BDC89
:1006A80004F11404C4F1200500FA05F320FA04F05B
:1006B80001FA05F240EA020001F0004221F000418F
:1006C80010EBD37021FA04F642EB06015EEA430E02
:1006D80008BF20EAD37070BDC4F10C04C4F1200532
:1006E80000FA04F320FA05F001FA04F240EA0200E5
:1006F80001F0004110EBD37041F100015EEA430EB6
:1007080008BF20EAD37070BDC4F1200500FA05F2D5
:100718004EEA020E20FA04F301FA05F243EA020354
:1007280021FA04F001F0004121FA04F220EA020063
:1007380000EBD3705EEA430E08BF20EAD37070BDA9
:1007480094F0000F0FD101F00046400041EB010189
:1007580011F4801F08BF013CF7D041EA060195F06B
:10076800000F18BF704703F00046520043EB030325
:1007780013F4801F08BF013DF7D043EA0603704712
:1007880094EA0C0F0CEA135518BF95EA0C0F0CD01D
:1007980050EA410618BF52EA4306D1D181EA030163
:1007A80001F000414FF0000070BD50EA410606BF5D
:1007B8001046194652EA430619D094EA0C0F02D1A2
:1007C80050EA013613D195EA0C0F05D152EA0336E7
:1007D8001CBF104619460AD181EA030101F0004105
:1007E80041F0FE4141F470014FF0000070BD41F04E
:1007F800FE4141F4780170BD70B54FF0FF0C4CF428
:10080800E06C1CEA11541DBF1CEA135594EA0C0F46
:1008180095EA0C0F00F0A7F8A4EB050481EA030E93
:1008280052EA03354FEA013100F088804FEA03337A
:100838004FF0805545EA131343EA12634FEA022248
:1008480045EA111545EA10654FEA00260EF0004109
:100858009D4208BF964244F1FD0404F5407402D25B
:100868005B084FEA3202B61A65EB03055B084FEAEC
:1008780032024FF480104FF4002CB6EB020E75EBE9
:10088800030E22BFB61A754640EA0C005B084FEA11
:100898003202B6EB020E75EB030E22BFB61A75468E
:1008A80040EA5C005B084FEA3202B6EB020E75EBD9
:1008B800030E22BFB61A754640EA9C005B084FEA51
:1008C8003202B6EB020E75EB030E22BFB61A75465E
:1008D80040EADC0055EA060E18D04FEA051545EA4D
:1008E80016754FEA06164FEAC30343EA52734FEAF6
:1008F800C2025FEA1C1CC0D111F4801F0BD141EA6F
:1009080000014FF000004FF0004CB6E711F4801FD3
:1009180004BF01430020B4F1FD0C88BFBCF5E06FB3
:100928003FF6AFAEB5EB030C04BFB6EB020C5FEAC3
:10093800500C50F1000041EB045170BD0EF0004E18
:100948004EEA113114EB5C04C2BFD4EB0C0541EA4A
:10095800045170BD41F480114FF0000E013C90E647
:1009680045EA060E8DE60CEA135594EA0C0F08BF0B
:1009780095EA0C0F3FF43BAF94EA0C0F0AD150EA0A
:1009880001347FF434AF95EA0C0F7FF425AF10469D
:1009980019462CE795EA0C0F06D152EA03353FF4C5
:1009A800FDAE1046194622E750EA410618BF52EA42
:1009B80043067FF4C5AE50EA41047FF40DAF52EA16
:1009C80043057FF4EBAE12E74FEA4102B2F1E04390
:1009D80024BFB3F5001CDCF1FE5C0DD901F0004C1E
:1009E8004FEAC0024CEA5070B2F1004F40EB83006E
:1009F80008BF20F00100704711F0804F21D113F19A
:100A08003872BCBF01F00040704741F480114FEAD2
:100A18005252C2F11802C2F1200C10FA0CF320FA5B
:100A280002F018BF40F001004FEAC1234FEAD32378
:100A380003FA0CFC40EA0C0023FA02F34FEA4303E2
:100A4800CCE77FEA625307D150EA01331EBF4FF06B
:100A5800FE4040F44000704701F0004040F0FE4086
:100A680040F40000704700BF08B5072002F06EFB95
:100A7800002211466FF00B0002F07AFB00221146AB
:100A88006FF00A0002F074FB002211466FF00900B3
:100A980002F06EFB002211466FF0040002F068FBC2
:100AA800002211466FF0030002F062FB002211469B
:100AB8006FF0010002F05CFB002211464FF0FF309E
:100AC80002F056FB08BD00BF02681A4B9A422FD1AC
:100AD80010B586B04FF4407301931223029301239B
:100AE800039303230493042305930DEB0301124896
:100AF80002F0E8F900240094104B1A6C42F400123A
:100B08001A641B6C03F400130093009B22462146D1
:100B18001F2002F02DFB1F2002F05CFB224621461D
:100B2800202002F025FB202002F054FB06B010BD67
:100B3800704700BF005400400004024000380240E3
:100B48000268104B9A421CD100B587B0002300936D
:100B58000D4A116C41F400311164126C02F4003238
:100B68000092009A0C2201920222029203930493AB
:100B78000723059301A9054802F0A4F907B05DF819
:100B880004FB704700440040003802400000024067
:100B980008B50146014802F0C3FD08BD78000020F1
:100BA80030B58BB000240194214B1A6B42F004023B
:100BB8001A631A6B02F004020192019A02941A6BEA
:100BC80042F080021A631A6B02F080020292029AC3
:100BD80003941A6B42F001021A631A6B02F00102C5
:100BE8000392039A04941A6B42F002021A631B6B75
:100BF80003F002030493049B0E4D2246202128464D
:100C080002F036FA4FF4005305930B4B0693079402
:100C180005A90A4802F056F92023059301230693F3
:100C28000794089405A9284602F04CF90BB030BD8A
:100C38000038024000000240000021100008024075
:100C480010B586B006AC04F8012D0A2302930123DF
:100C5800019300940A46D62101F0FCF906B010BDB4
:100C680000B587B006AA002302F8013D0A230293C3
:100C78000123019300920A46D621044801F0A8FAFC
:100C88009DF8170007B05DF804FB00BF24000020A2
:100C980038B505460C462821FFF7E2FF20802921B8
:100CA8002846FFF7DDFF238843EA002020802A2119
:100CB8002846FFF7D5FF60802B212846FFF7D0FF95
:100CC800638843EA002060802C212846FFF7C8FF8C
:100CD800A0802D212846FFF7C3FFA38843EA002000
:100CE800A08038BD38B505460C462221FFF7B8FF6D
:100CF800208023212846FFF7B3FF238843EA0020FA
:100D0800208024212846FFF7ABFF60802521284654
:100D1800FFF7A6FF638843EA002060802621284663
:100D2800FFF79EFFA08027212846FFF799FFA38899
:100D380043EA0020A08038BDFEE700BF08B50C4894
:100D48000C4B03600C4B436000238360C3604FF47B
:100D58008042026143618361C361036201F0ECF880
:100D680020B14FF48C710548FFF7E6FF08BD00BFBE
:100D78002400002000540040A0860100543A0008D6
:100D880008B50B480B4B03604FF4E1334360002375
:100D98008360C36003610C2242618361C36102F016
:100DA8001BFC20B140F22B110348FFF7C5FF08BD1B
:100DB8007800002000440040543A000800B595B07F
:100DC800002201922A4B196C41F0805119641B6C66
:100DD80003F080530193019B029226490B6823F488
:100DE800404343F400430B600B6803F44043029311
:100DF800029B0221089101230B9310230C930E915F
:100E08000F9210934FF4A87311930423129307239E
:100E1800139308A800F0C6F918B1EC211648FFF79B
:100E28008BFF0F23039302210491002305934FF4B2
:100E380080520692079303A800F0EAFB18B1FA2142
:100E48000D48FFF779FF00F0BBFC0C4BA3FB00300B
:100E5800800902F0CBF9042002F0DEF900221146E5
:100E68004FF0FF3002F084F915B05DF804FB00BFC5
:100E78000038024000700040543A0008D34D621018
:100E880030B52DED028B8FB000240C94ADF83440B2
:100E98000A94ADF82C400894ADF8244005940694C3
:100EA800079402F005F9FFF789FFA34AA34B1A60DC
:100EB800FFF776FEFFF742FFFFF762FFA04D0F2115
:100EC8002846FFF7CDFE852210212846FFF7B8FEF9
:100ED800602211212846FFF7B3FE0222132128467B
:100EE800FFF7AEFE022215212846FFF7A9FE22468B
:100EF80016212846FFF7A4FE4FF47A7002F000F995
:100F080019E00AA98E48FFF7EDFEBDF82820BDF8C4
:100F180020301344ADF82030BDF82A20BDF8223027
:100F28001344ADF82230BDF82C20BDF8243013440A
:100F3800ADF824300134092CE3DDBDF92030814AB5
:100F480082FB0301DB17C3EBA103ADF82030BDF929
:100F5800223082FB0301DB17C3EBA103ADF822307B
:100F6800BDF9243082FB0312DB17C3EBA203ADF8F3
:100F78002430734C0CA92046FFF78AFE0AA92046A4
:100F8800FFF7B0FE4FF400516F4802F069F8D8B18E
:100F980039E00AA96A48FFF7A5FEBDF82820BDF880
:100FA80020301344ADF82030BDF82A20BDF8223097
:100FB8001344ADF82230BDF82C20BDF8243013447A
:100FC800ADF82430013400E00024092CE1DDBDF93E
:100FD80020205C4981FB0203D217C2EBA302ADF8C3
:100FE8002020BDF9222081FB0203D217C2EBA30205
:100FF800ADF82220BDF9243081FB0321DB17C3EBB8
:10100800A103ADF82430BDF92830BDF92000181A25
:1010180007EE900AF8EEE77A17EE900AFFF76EFAF5
:1010280041A3D3E90023FFF7BDFA41A3D3E9002385
:10103800FFF7E2FB04460D460598FFF75FFA2246E4
:101048002B46FFF7FDF8FFF7BFFC08EE900A059066
:10105800BDF92A30BDF92200181A07EE900AF8EEF9
:10106800E77A17EE900AFFF749FA2FA3D3E900238E
:10107800FFF798FA2EA3D3E90023FFF7BDFB044638
:101088000D460698FFF73AFA22462B46FFF7D8F89E
:10109800FFF79AFC08EE100A0690BDF92C30BDF94E
:1010A8002400181A07EE900AF8EEE77A17EE900A6D
:1010B800FFF724FA1CA3D3E90023FFF773FA1CA354
:1010C800D3E90023FFF798FB04460D460798FFF77E
:1010D80015FA22462B46FFF7B3F8FFF775FC07EE23
:1010E800900A0790BDEEE87A8DED017ABDEEC87AD8
:1010F8008DED027AFDEEE77ACDED037ABDF90C307D
:10110800BDF90820BDF90410104802F035FC10485C
:1011180002F032FC20210F4801F0B0FF012001F05D
:10112800EFFF26E7AFF30080FCA9F1D24D62503FF4
:101138000000000000A06E40990B0008C0000020CD
:10114800240000206766666600080240603A0008CE
:101158006C3A0008000002400F49D1F8883043F487
:101168007003C1F888300D4B1A6842F001021A600A
:10117800002098601A6822F0847222F480321A6083
:10118800074A5A601A6822F480221A60D8604FF021
:1011980000638B60704700BF00ED00E0003802403C
:1011A8001030002430B583B00446036813F0010FF3
:1011B8005AD09F4B9B6803F00C03042B0AD09C4B1E
:1011C8009B6803F00C03082B0DD1994B5B6813F453
:1011D800800F08D0964B1B6813F4003F44D0636817
:1011E800002B41D19DE16368B3F5803F05D1904A5A
:1011F800136843F48033136015E0B3F5A02F09D1C9
:101208008B4B1A6842F480221A601A6842F48032C2
:101218001A6008E0864B1A6822F480321A601A684D
:1012280022F480221A6063687BB101F063FF0546EF
:1012380005E001F05FFF401B642800F274817C4BDD
:101248001B6813F4003FF4D00EE001F053FF05468D
:1012580005E001F04FFF401B642800F26681744BE3
:101268001B6813F4003FF4D1236813F0020F5AD01F
:101278006F4B9B6813F00C0F0AD06D4B9B6803F003
:101288000C03082B1BD16A4B5B6813F4800F16D133
:10129800674B1B6813F0020F03D0E368012B40F083
:1012A80046816348036823F0F8012369F82292FA1B
:1012B800A2F2B2FA82F293400B43036033E0E36890
:1012C800FBB101225B4B1A6001F014FF054605E0F3
:1012D80001F010FF401B022800F22B81544B1B68C1
:1012E80013F0020FF4D05248036823F0F801236981
:1012F800F82292FAA2F2B2FA82F293400B43036008
:1013080011E000224B4B1A6001F0F4FE054605E09F
:1013180001F0F0FE401B022800F20D81444B1B68CF
:1013280013F0020FF4D1236813F0080F26D0636975
:1013380093B10122404B1A6001F0DCFE054605E03E
:1013480001F0D8FE401B022800F2F780384B5B6F93
:1013580013F0020FF4D011E00022374B1A6001F0AD
:10136800C9FE054605E001F0C5FE401B022800F253
:10137800E6802F4B5B6F13F0020FF4D1236813F054
:10138800040F69D000230193294B1A6C42F0805254
:101398001A641B6C03F080530193019B274A13685E
:1013A80043F48073136001F0A5FE054605E001F0E3
:1013B800A1FE401B022800F2C480204B1B6813F4D6
:1013C800807FF4D0A368012B05D1194A136F43F02D
:1013D8000103136714E0052B09D1154B1A6F42F06E
:1013E80004021A671A6F42F001021A6708E0104BEC
:1013F8001A6F22F001021A671A6F22F004021A67A4
:10140800A3688BB101F076FE054607E001F072FE95
:10141800401B41F28833984200F29580044B1B6FC1
:1014280013F0020FF2D017E001F064FE05460EE05B
:101438000038024000004742800E474200700040DA
:1014480001F058FE401B41F2883398427DD8454B45
:101458001B6F13F0020FF3D1A369002B77D0414A19
:10146800926802F00C02082A73D0022B46D100229F
:101478003D4B1A6001F03EFE054604E001F03AFEDD
:10148800401B022867D8374B1B6813F0007FF5D143
:10149800E169236A1943636A47F6C07292FAA2F2B5
:1014A800B2FA82F293401943A36A5B085A1E4FF4BA
:1014B800403393FAA3F3B3FA83F302FA03F30B432B
:1014C800E26A4FF0706191FAA1F1B1FA81F18A40B4
:1014D8001343244A53600122234B1A6001F00AFE89
:1014E800044604E001F006FE001B022835D81D4B17
:1014F8001B6813F0007FF5D0002031E000221A4B62
:101508001A6001F0F7FD044604E001F0F3FD001B4A
:10151800022824D8134B1B6813F0007FF5D1002054
:101528001EE001201CE003201AE0032018E001203F
:1015380016E0032014E0032012E0032010E003204B
:101548000EE003200CE003200AE0032008E000205E
:1015580006E0012004E0032002E0032000E003206D
:1015680003B030BD0038024060004742254B9B68FD
:1015780003F00C03042B3FD0082B01D022487047FE
:1015880010B4204B586800F03F005B6813F4800FDC
:1015980010D01E4BB3FBF0F01A4B5A6847F6C071D7
:1015A8000A4091FAA1F3B3FA83F322FA03F303FB97
:1015B80000F310E0144BB3FBF0F0124B5A6847F6F7
:1015C800C07402EA040194FAA4F2B2FA82F221FA8F
:1015D80002F202FB00F30B4A506800F440324FF469
:1015E800403090FAA0F0B0FA80F022FA00F0013012
:1015F8004000B3FBF0F001E0044870475DF8044B8D
:10160800704700BF003802400024F40000127A003E
:1016180070B5674B1B6803F00F038B4208D2CBB23F
:10162800634A1370136803F00F03994240F0AE80C9
:10163800036813F0020F06D05E4CA36823F0F00293
:1016480083681343A3600D460446036813F0010F33
:1016580060D04268012A05D1564B1B6813F4003F3D
:101668000FD195E0931E012B05D8524B1B6813F040
:10167800007F06D18EE04F4B1B6813F0020F00F07D
:101688008B804C498B6823F0030313438B6001F074
:1016980031FD06466368012B0ED106E001F02AFDF4
:1016A800801B41F28833984278D8424B9B6803F0FC
:1016B8000C03042BF2D12DE0022B0ED106E001F031
:1016C80019FD801B41F28833984269D8394B9B68D1
:1016D80003F00C03082BF2D11CE0032B15D106E014
:1016E80001F008FD801B41F2883398425AD8314BEB
:1016F8009B6803F00C030C2BF2D10BE001F0FAFC11
:10170800801B41F2883398424ED82A4B9B6813F0CD
:101718000C0FF3D1264B1B6803F00F039D4207D231
:10172800EAB2234B1A701B6803F00F039D423DD1A8
:10173800236813F0040F06D01E498B6823F4E05287
:10174800E36813438B60236813F0080F07D0194A26
:10175800936823F46043216943EAC1039360FFF768
:1017680005FF144B9B6803F0F002F02393FAA3F3F0
:10177800B3FA83F322FA03F30F4AD35CD8400F4B32
:101788001860002001F07EFC002070BD012070BDB3
:10179800012070BD012070BD012070BD032070BD07
:1017A800032070BD032070BD032070BD012070BDF3
:1017B800003C024000380240703A00080000002057
:1017C800014B1868704700BF0000002008B5FFF7FC
:1017D800F7FF084B9B6803F4E0524FF4E05393FA89
:1017E800A3F3B3FA83F322FA03F3034AD35CD84092
:1017F80008BD00BF00380240803A000808B5FFF76E
:10180800DFFF084B9B6803F460424FF4604393FA90
:10181800A3F3B3FA83F322FA03F3034AD35CD84061
:1018280008BD00BF00380240803A000808B501F042
:1018380059FC01F003FD08BD08B5024801F0FCF9A8
:1018480008BD00BF2400002008B5024801F0A4FA32
:1018580008BD00BF2400002090F83E30DBB2402BCA
:101868000ED1036D2BB90268436C03F0FE031361BC
:1018780032E00268436C43F00103DBB213612BE0F2
:101888000369B3F5804F11D190F83D30DBB2212BBD
:1018980005D10268436C03F0FE0313611CE0026883
:1018A800436C43F00103DBB2136115E0036D43B9E8
:1018B8000268436CDB1103F0060343F0F003136185
:1018C8000AE0036D012B07D10268436CDB1103F0BA
:1018D800060343F0F1031361002070470268436C6C
:1018E800DBB213610020704710B48BB090F83E3023
:1018F800DAB2C16A046B90F83D30DBB2222B40F0BB
:10190800CC80036D4BB9402A07D1009303685A690C
:1019180000929B690093009BC7E0036D9BB9036924
:10192800B3F5404F0FD10023019303685A69019220
:101938009A690192019A1A6842F480721A60036DDA
:1019480001330365B1E0438D9BB25BB90293036831
:101958005A6902929A690292029A1A6842F40072CB
:101968001A6097E0438D9BB2012B54D111F5803F4B
:1019780022D10268136823F48063136003685A68ED
:1019880012F4006F0CD01A6822F480621A600023E7
:10199800039303685A6903929B690393039B79E055
:1019A800002204925A6904929A690492049A1A6865
:1019B80042F400721A606DE004291AD0082918D080
:1019C800122C16D0C36A022B05D00268136823F4C0
:1019D8008063136004E00268136843F48063136053
:1019E8000023059303685A6905929B690593059B33
:1019F80050E00268136823F48063136000230693A1
:101A080003685A6906929A690692069A1A6842F415
:101A180000721A603EE0438D9BB2022B24D1C36A48
:101A2800022B0AD00268136823F4806313600268EB
:101A3800136843F40063136004E00268136843F416
:101A48008063136003685A6812F4006F03D05A6801
:101A580042F480525A600023079303685A69079238
:101A68009B690793079B15E00268136843F480633A
:101A7800136003685A6812F4006F03D05A6842F47E
:101A880080525A600023089303685A6908929B6938
:101A98000893089B0023036507E000230993036864
:101AA8005A6909929B690993099B00200BB05DF85C
:101AB800044B7047438D9BB253B10268436A591C6B
:101AC80041621B781361438D9BB2013B9BB24385F6
:101AD80000207047438D9BB253B1436A5A1C42623F
:101AE800026812691A70438D9BB2013B9BB2438511
:101AF8000020704703685A6912F4806F0DD06FF4A4
:101B080080625A610423036400230363202280F85F
:101B18003D2080F83C30012070470020704700BF0E
:101B2800F8B506460C4617461D4614E0B5F1FF3FCA
:101B380011D02DB101F0DEFA069BC01A85420AD2F7
:101B480000233363202286F83D2086F83E3086F84D
:101B58003C300320F8BDC4F30743012B08D1336898
:101B68005B6924EA03039BB2B3FA83F35B0907E0DA
:101B780033689B6924EA03039BB2B3FA83F35B09D6
:101B8800BB42D3D00020F8BDF8B504460D46164632
:101B98001F4629E023685A6912F4806F12D01A6828
:101BA80042F400721A6023686FF480625A61042359
:101BB800236400232363202284F83D2084F83C30EA
:101BC8000120F8BDB6F1FF3F0ED026B101F092FA20
:101BD800C01B864208D200232363202284F83D20BC
:101BE80084F83C300320F8BDC5F30743012B08D126
:101BF80023685B6925EA03039BB2003318BF0123FE
:101C080007E023689B6925EA03039BB2003318BFEA
:101C18000123002BBED10020F8BD00BF70B50446DB
:101C28000D46164619E02046FFF764FFE0B9B5F106
:101C3800FF3F12D025B101F05DFA801B85420CD21E
:101C4800236C43F02003236400232363202284F8B9
:101C58003D2084F83C30032070BD23685B6913F095
:101C6800800FE0D0002070BD012070BD2DE9F0414B
:101C780084B00546884616461F460B9C02681368C2
:101C880043F48073136000940A9B00224FF0011103
:101C9800FFF746FF002846D12A6808F0FE031361C3
:101CA80023460A9A25492846FFF76EFF20B12B6C78
:101CB800042B3AD101233DE0002303932B685A6992
:101CC80003929B690393039B22460A992846FFF7D0
:101CD800A5FF034648B12B6C042B28D12A6813684A
:101CE80043F400731360012324E0012F03D12A6811
:101CF800F6B216611EE02B68320A1A6122460A996A
:101D08002846FFF78BFF034648B12B6C042B10D1F4
:101D18002A68136843F40073136001230AE02A68F1
:101D2800F6B2166106E0032304E0032302E003236E
:101D380000E00323184604B0BDE8F081020001006A
:101D48002DE9F04184B005460E46174698460B9C8F
:101D58000268136843F4806313600268136843F4ED
:101D68008073136000940A9B00224FF00111FFF763
:101D7800D7FE002874D12B68F6B206F0FE021A616D
:101D880023460A9A3F492846FFF7FEFE20B12B6CEE
:101D9800042B67D1012370E0002303932B685A6951
:101DA80003929B690393039B22460A992846FFF7EF
:101DB80035FF48B12B6C042B56D12A68136843F4BD
:101DC80000731360012358E0B8F1010F03D12B68A9
:101DD800FFB21F6115E02B683A0A1A6122460A9978
:101DE8002846FFF71BFF48B12B6C042B3ED12A680D
:101DF800136843F40073136001233EE02B68FFB2BD
:101E08001F6122460A992846FFF708FF48B12B6C44
:101E1800042B2DD12A68136843F40073136001233F
:101E28002BE02A68136843F48073136000940A9BBC
:101E380000224FF001112846FFF772FED0B92B6837
:101E480046F001061E6123460A9A0E492846FFF706
:101E58009BFE034688B12B6C042B0DD101230CE0AB
:101E680003230AE0032308E0032306E0032304E036
:101E7800032302E0032300E00323184604B0BDE86F
:101E8800F08100BF0200010070B504460D461646F9
:101E980019E02046FFF72EFEE0B9B5F1FF3F12D05A
:101EA80025B101F027F9801B85420CD2236C43F041
:101EB8002003236400232363202284F83D2084F830
:101EC8003C30032070BD23685B6913F0040FE0D039
:101ED800002070BD012070BD70B505460C46164641
:101EE80022E05A6912F0100F0CD06FF010025A61FC
:101EF80000232B642B63202285F83D2085F83C3095
:101F0800012070BD24B101F0F5F8801B84420BD28A
:101F18002B6C43F020032B64202385F83D300023ED
:101F280085F83C30032070BD2B685A6912F0400FC9
:101F3800D7D0002070BD00BF002800F0838038B5DE
:101F4800044690F83D3013F0FF0F04D1002380F8C9
:101F58003C30FEF7B9FD242384F83D30226813682D
:101F680023F001031360FFF731FC374BA3FB002379
:101F78009B0C2268536021686568344A954201D8F1
:101F8800013308E04FF4967202FB03F3304AA2FBD8
:101F980003239B0901330B62216863682B4A934230
:101FA80008D85B00B0FBF3F0C0F30B03032B2BD86E
:101FB800042029E0A5684DB903EB4302B0FBF2F217
:101FC800C2F30B02B2FA82F252090AE003EB83026F
:101FD80002EB8202B0FBF2F2C2F30B02B2FA82F217
:101FE800520982B935B903EB4303B0FBF3F040F46F
:101FF800004009E003EB830303EB8303B0FBF3F03A
:1020080040F4404000E00120C8612268E169236A89
:102018000B43136022682169E3680B4393602268CD
:102028006169A3690B43D3602268136843F0010315
:10203800136000202064202384F83D30206384F856
:102048003E0038BD0120704783DE1B43A086010097
:10205800D34D62102DE9F04182B004460E46174672
:10206800984601F047F894F83D30DBB2202B40F059
:102078009E80054600901923012253492046FFF708
:102088004FFD002840F0958094F83C30012B00F07B
:102098009280012384F83C3023681A6812F0010FFB
:1020A80003D11A6842F001021A602268136823F407
:1020B80000631360212384F83D30402384F83E30C8
:1020C80000232364089B6362BDF8243063853F4B7B
:1020D800E362638D238501950A9B009343463A4644
:1020E80031462046FFF7C2FD00283ED0236C042B62
:1020F80004D1002384F83C30012361E0002384F8F4
:102108003C3003235CE02A460A992046FFF786FD07
:1021180048B1236C042B50D12268136843F4007330
:10212800136001234CE02268636A591C61621B78C2
:102138001361228D013A92B22285638D9BB2013BD5
:102148009BB263852368596911F0040F0DD062B101
:10215800626A511C616212781A61238D013B2385E2
:10216800638D9BB2013B9BB26385238D002BCAD143
:102178002A460A992046FFF787FE034648B1236C92
:10218800042B1CD12268136843F4007313600123E5
:1021980016E021680A6842F400720A60202284F876
:1021A8003D20002284F83E2084F83C2008E00223E9
:1021B80006E0022304E0022302E0032300E00323F5
:1021C800184602B0BDE8F081020010000000FFFFD1
:1021D8002DE9F04186B004460D461746984600F0B2
:1021E80089FF94F83D30DBB2202B40F05E81064633
:1021F80000901923012293492046FFF791FC0028FB
:1022080040F0558194F83C30012B00F052810123B5
:1022180084F83C3023681A6812F0010F03D11A6859
:1022280042F001021A602268136823F40063136005
:10223800222384F83D30402384F83E300023236471
:102248000C9B6362BDF8343063857F4BE362638D1A
:10225800238501960E9B009343463A46294620461D
:10226800FFF76EFD054660B1236C042B04D10023F3
:1022780084F83C30012527E1002384F83C3003250D
:1022880022E1238D5BB9029323685A6902929A6905
:102298000292029A1A6842F400721A60F8E0012B5E
:1022A80011D12268136823F4806313600023039319
:1022B80023685A6903929A690392039A1A6842F446
:1022C80000721A60E4E0022B12D12268136823F42A
:1022D800806313602268136843F40063136000236B
:1022E800049323685A6904929B690493049BCFE082
:1022F8000023059323685A6905929B690593059BFA
:10230800C6E0032B00F29380012B1AD132460E99B6
:102318002046FFF7E1FD28B1236C202B40F0CB804D
:102328000325D1E0636A5A1C6262226812691A7036
:10233800238D013B2385638D9BB2013B9BB2638553
:10234800A6E0022B2BD100960E9B00223F49204687
:10235800FFF7E6FB002840F0B0802268136843F4DA
:1023680000731360636A5A1C6262226812691A70E9
:10237800238D013B2385638D9BB2013B9BB2638513
:10238800636A5A1C6262226812691A70238D013BC3
:102398002385638D9BB2013B9BB2638578E00096F1
:1023A8000E9B002229492046FFF7BAFB002840F07F
:1023B80086802268136823F480631360636A5A1C5A
:1023C8006262226812691A70238D013B2385638D2E
:1023D8009BB2013B9BB2638500960E9B00221B4972
:1023E8002046FFF79DFB00286BD12268136843F451
:1023F80000731360636A5A1C6262226812691A7059
:10240800238D013B2385638D9BB2013B9BB2638582
:10241800636A5A1C6262226812691A70238D013B32
:102428002385638D9BB2013B9BB2638530E03246C6
:102438000E992046FFF750FD50B1236C202B42D156
:10244800032541E0020010000000FFFF0400010026
:10245800636A5A1C6262226812691A70238D013BF2
:102468002385638D9BB2013B9BB2638523685A69C0
:1024780012F0040F0CD0626A511C61621B69137060
:10248800238D013B2385638D9BB2013B9BB2638502
:10249800238D002B7FF435AF202384F83D300023B3
:1024A80084F83E3084F83C300EE002250CE002252A
:1024B8000AE0022508E0012506E0032504E00325DB
:1024C80002E0032500E00125284606B0BDE8F081BA
:1024D800704700BF704700BF704700BF90F83D309D
:1024E800DAB2438D9BB2F3B110B50168436A5C1C44
:1024F80044621B780B61438D9BB2013B9BB24385C1
:10250800438D9BB26BB9292A0BD10268536823F417
:102518008063536021230363282380F83D30FFF74D
:10252800DBFF002010BD0020704700BF704700BFD0
:1025380008B590F83D30DAB2438D9BB2DBB1436AFF
:10254800591C4162016809691970438D9BB2013BAE
:102558009BB24385438D9BB26BB92A2A0BD1026883
:10256800536823F48063536022230363282380F88D
:102578003D30FFF7DBFF002008BD00BF704700BFFC
:1025880008B503689A6912F0040F01D0002100E031
:1025980001219B6913F0800F01D1828900E0028B31
:1025A800FFF7ECFF002008BD704700BF08B590F8A2
:1025B8003D30DBB2C26A042A01D0082A1BD1282B7D
:1025C80019D11E4BC3620268536823F4E063536059
:1025D80003686FF480625A610268136823F48063A9
:1025E800136000230363202280F83D2080F83E30EA
:1025F800FFF7DAFF20E0212B1AD1104BC362212309
:102608000363202380F83D30002380F83E300268C1
:10261800536823F4E063536003686FF480625A617F
:102628000268136823F480631360FFF755FF03E023
:1026380003686FF480625A61002008BD0000FFFF44
:10264800704700BF10B590F83D30DBB290F83E20DF
:10265800D2B2C46A018D002938D1212B36D1042C7D
:1026680014D0082C12D014F5803F0FD0026853689C
:1026780023F4E063536011230363002380F83E30A2
:10268800202380F83D30FFF723FF7EE0026853687F
:1026980023F4E06353600268136843F40073136023
:1026A80000230363202380F83D3090F83E30DBB2EE
:1026B800402B05D1002380F83E30FFF7C1FF64E0CE
:1026C800002380F83E30FFF703FF5EE0212B03D0A4
:1026D800402A5AD1222B58D1438D9BB22BB902687C
:1026E800536823F4806353604FE090F83E30DBB2C8
:1026F800402B3FD1036D9BB9C36C012B07D10268F6
:10270800836CDBB21361036D023303653DE002683D
:10271800836CC3F307231361036D0133036534E04E
:10272800036D012B07D10268836CDBB21361036D63
:102738000133036529E0036D022B26D190F83D3063
:10274800DBB2222B05D10268136843F4807313604F
:102758001BE090F83D30DBB2212B16D10268436AAA
:10276800591C41621B781361438D9BB2013B9BB29C
:1027780043850AE00268436A591C41621B78136169
:10278800438D9BB2013B9BB24385002010BD00BF27
:1027980008B5C26A90F83D30DBB2212B44D1438D95
:1027A8009BB25BB10268436A591C41621B78136192
:1027B800438D9BB2013B9BB2438535E0042A14D07C
:1027C800082A12D012F5803F0FD00268536823F40C
:1027D800E063536011230363002380F83E30202315
:1027E80080F83D30FFF774FE1EE00268536823F45A
:1027F800E06353600268136843F4007313600023B6
:102808000363202380F83D3090F83E30DBB2402B44
:1028180005D1002380F83E30FFF712FF04E00023C3
:1028280080F83E30FFF754FE002008BD704700BF17
:1028380008B590F83D30DBB2222B54D1438D9BB2C2
:10284800032B0BD9436A5A1C4262026812691A7038
:10285800438D9BB2013B9BB2438544E0023B012B75
:102868000FD80268136823F4806313600268136842
:1028780043F4006313600268536823F48063536071
:1028880031E00268136823F480631360C36A022B83
:1028980004D10268136843F4006313600268536844
:1028A80023F4E0635360436A5A1C42620268126967
:1028B8001A70438D9BB2013B9BB24385202380F85D
:1028C8003D300023036390F83E30DBB2402B05D146
:1028D800002380F83E30FFF7A9FF04E0002380F8CA
:1028E8003E30FFF7F7FD002008BD00BF08B5C26AFB
:1028F800438D9BB2032B17D1042A04D0082A02D097
:1029080012F5803F04D10268136823F480631360D2
:10291800436A5A1C4262026812691A70438D9BB25C
:10292800013B9BB2438559E0438D9BB2022B4AD1B0
:10293800042A12D0082A10D012F5803F0DD0016861
:102948000B6823F480630B60013A012A0AD80268F5
:10295800136843F48073136004E00268136843F457
:1029680000731360436A5A1C4262026812691A7043
:10297800438D9BB2013B9BB24385436A5A1C42621A
:10298800026812691A70438D9BB2013B9BB2438562
:102998000268536823F440735360202380F83D3065
:1029A8000023036390F83E30DBB2402B05D10023AF
:1029B80080F83E30FFF73AFF10E0002380F83E3001
:1029C800FFF788FD0AE0436A5A1C426202681269EE
:1029D8001A70438D9BB2013B9BB24385002008BD12
:1029E800704700BF704700BF10B5044690F83D30EF
:1029F800293B012B05D800230363282380F83D30A9
:102A080010E090F83D30DBB2602B07D003685B68BC
:102A180013F4006F02D1202380F83D300023236394
:102A280084F83E302268136823F400631360236837
:102A38005A6812F4006F3AD05A6822F400625A6059
:102A4800626B92F83530DBB2012B12D0374B13652D
:102A5800606B00F067FB002851D02268136823F0F0
:102A680001031360202384F83D30606B036D9847A1
:102A780045E0A36B2D4A1A65A06B00F053FB0028B4
:102A88003DD023685A6912F0400F04D0626A511C85
:102A980061621B6913702268136823F001031360D5
:102AA800202384F83D30A06B036D984727E094F805
:102AB8003D20D2B2602A16D1202284F83D2000227F
:102AC80022645A6912F0400F04D0626A511C616294
:102AD8001B6913702268136823F0010313602046F2
:102AE800FFF780FF0BE05A6912F0400F04D0626ACA
:102AF800511C61621B6913702046FFF771FF94F83F
:102B08003D30DBB2282B0FD1236C13F0040F0BD010
:102B1800074BE36200232363202284F83D2084F8D6
:102B28003E302046FFF740FD10BD00BF6D2E000867
:102B38000000FFFF10B582B090F83D30DBB20168AD
:102B48004A6822F4E0624A600022019202685169F0
:102B58000191116841F001011160019A01680A6848
:102B680022F480620A6001684A6812F4006F14D087
:102B780090F83D20D2B2222A04D090F83D20D2B25B
:102B88002A2A05D1826B1268526892B2428504E003
:102B9800426B1268526892B24285428D92B202B379
:102BA8004A6912F0040F09D0426A541C4462096948
:102BB8001170428D92B2013A92B24285026851690F
:102BC80011F0400F09D0416A4C1C446212690A7026
:102BD800428D92B2013A92B24285026C42F00402EE
:102BE8000264026C12B1FFF7FFFE1FE0282B03D02E
:102BF8002A2B01D0292B0BD10E4BC3620023036370
:102C0800202280F83D2080F83E30FFF7CDFC0DE013
:102C1800026B222A01D0222B08D100230363202231
:102C280080F83D2080F83E30FFF780FC002002B09D
:102C380010BD00BF0000FFFFF8B5054603689F6997
:102C48005C695E6890F83E30DBB2102B01D0402BF7
:102C58004FD114F0011F06D016F4007F03D0284688
:102C6800FEF7FAFD12E0454B234033B116F4007F1E
:102C780003D02846FEF732FE08E0414B23402BB133
:102C880016F4007F02D02846FEF72EFE3D4B3B404F
:102C9800BBB13D4B23404BB116F4806F06D03B4B84
:102CA80023401BB92846FFF7CDFCF8BD374B23401E
:102CB800002B61D016F4007F5ED02846FFF768FD30
:102CC800F8BD334B23404BB116F4806F06D02F4B21
:102CD80023401BB92846FFF7ABFDF8BD2B4B23401B
:102CE800002B49D016F4007F46D02846FFF7FEFD9A
:102CF800F8BD234B23402BB116F4007F02D0FFF719
:102D08003FFCF8BD234B234033B116F4007F03D0BA
:102D18002846FFF70FFFF8BD1A4B3B40B3B11A4BDB
:102D280023404BB116F4806F06D0184B23401BB9D3
:102D38002846FFF7D3FBF8BD144B2340E3B116F444
:102D4800007F19D02846FEF7B5FEF8BD104B23408A
:102D58004BB116F4806F06D00C4B23401BB92846A4
:102D6800FFF7E6FBF8BD094B23402BB116F4007FB3
:102D780002D02846FEF7AEFEF8BD00BF08000100ED
:102D8800020001000400100080000100040001009E
:102D9800400001001000010070B5044603685D6939
:102DA8005E682F4A154209D016F4807F06D0026C5F
:102DB80042F0010202646FF480725A6115F4813F97
:102DC8000AD016F4807F07D0236C43F002032364F3
:102DD80023686FF400725A6115F4823F2CD016F400
:102DE800807F29D094F83E30DBB2628D91B294F89E
:102DF8003D20D2B2206B202B0CD159B9212A05D005
:102E0800292A03D0282A05D1212803D12046FFF7F3
:102E1800CDFB11E0236C43F00403236494F83E30A7
:102E2800DBB2102B04D12268136843F400731360DB
:102E380023686FF480625A6115F4843F0AD016F44F
:102E4800807F07D0236C43F00803236423686FF462
:102E580000625A61236C13B12046FFF7C5FD70BDAF
:102E68000001010008B5806B0268136823F48063D1
:102E7800136000234385426B1365826B136590F8DA
:102E88003D30DBB2602B0ED1202380F83D3000238B
:102E980080F83E3003640268136823F0010313606E
:102EA800FFF7A0FD08BD202380F83D30002380F8FF
:102EB8003E300268136823F001031360FFF790FDAA
:102EC80008BD00BFF0B583B00024BBE00123A340D8
:102ED8000A6803EA0205AB4240F0B3804A68022A56
:102EE80001D0122A10D1E608083650F826C004F09E
:102EF800070297000F22BA402CEA020E0A69BA406C
:102F08004EEA020240F82620026867000326BE4007
:102F1800F64302EA060E4A6802F00302BA404EEA95
:102F2800020202604A6802F1FF3EBEF1010F03D9B6
:102F3800112A01D0122A10D1826806EA020ECA6844
:102F4800BA404EEA02028260426822EA03034A68F3
:102F5800C2F30012A2401A434260C3681E408B6845
:102F6800BB403343C3604B6813F0805F69D00023D4
:102F78000193374B5A6C42F480425A645B6C03F4F9
:102F880080430193019BA608B21C324B53F82220C0
:102F980004F003039B000F279F4022EA07072E4AED
:102FA800904211D002F5806290420FD002F5806203
:102FB80090420DD002F5806290420BD002F58062FB
:102FC800904209D1042208E0002206E0012204E030
:102FD800022202E0032200E0072202FA03F33B4345
:102FE80002361C4A42F826301C4B1A68EB4302EAA8
:102FF80003064F6817F4803F01D045EA0206174AD6
:103008001660526803EA02064F6817F4003F01D0C1
:1030180045EA0206114A5660926803EA02064F68BA
:1030280017F4801F01D045EA02060C4A9660D26860
:1030380013404E6816F4001F01D045EA0203074A00
:10304800D36001340F2C7FF641AF03B0F0BD00BF51
:10305800003802400038014000000240003C0140B6
:103068000369194201D0012070470020704700BF52
:103078000AB1816170470904816170474369594009
:103088004161704710B50446074B1B680748A0FB11
:103098000330800900F0AAF8002221464FF0FF30E3
:1030A80000F066F8002010BD00000020D34D62102B
:1030B80008B50B4B1A6842F400721A601A6842F499
:1030C80080621A601A6842F480721A60032000F065
:1030D8003DF80020FFF7D6FFFDF7C6FC002008BD2D
:1030E800003C0240024A136801331360704700BF76
:1030F800B8000020014B1868704700BFB8000020D6
:1031080030B583B00190FFF7F5FF0546019CB4F197
:10311800FF3F00D00134FFF7EDFF401BA042FAD378
:1031280003B030BD90F83530DBB2022B03D08023DA
:10313800436501207047052380F83530026813681D
:1031480023F0010313600020704700BF074AD368CB
:1031580023F4E0631B041B0C000200F4E060184336
:1031680040F0BF6040F40030D060704700ED00E0F0
:1031780030B4164BDB68C3F30223C3F10704042CF5
:1031880028BF04241D1D062D01D9DD1E00E00025E1
:10319800012303FA04F4013C2140A940AB40013B60
:1031A8001A400A43002806DA00F00F001201D2B2D2
:1031B800074B1A5407E01201D2B200F1604000F543
:1031C800614080F8002330BC704700BF00ED00E08C
:1031D80014ED00E0420900F01F00012303FA00F09B
:1031E800014B43F82200704700E100E00138B0F1DC
:1031F800807F0AD2064B5860F021064A82F82310D5
:103208000020986007221A6070470120704700BFAD
:1032180010E000E000ED00E0042805D1054A13683D
:1032280043F0040313607047024A136823F0040351
:103238001360704710E000E0704700BF08B5FFF763
:10324800FBFF08BD2DE9F843044601680B6923F428
:103258004052C36813430B610068C36823F41642E5
:1032680022F00C02A1682369194363691943E369D1
:103278000B431343C36021684B6923F44072A3696D
:1032880013434B61E369B3F5004F40F0BB802768F7
:1032980003F1804303F510439F4203D003F5806395
:1032A8009F4257D1FEF7AAFA00EB800000EB80009E
:1032B80065686D00B0FBF5F5AB4EA6FB05356D09ED
:1032C8002D01FEF79BFA00EB800000EB800063689D
:1032D8005B00B0FBF3F9FEF791FA00EB800000EB1E
:1032E800800063685B00B0FBF3F3A6FB03235B0974
:1032F8004FF0640808FB1393DB003233A6FB03236B
:103308005B095B0003F4F8731D44FEF777FA00EBE2
:10331800800000EB800063685B00B0FBF3F9FEF708
:103328006DFA00EB800000EB800063685B00B0FB87
:10333800F3F3A6FB03235B0908FB13984FEAC808BD
:1033480008F13208A6FB0836C6F342163544BD60BC
:10335800BDE8F883FEF73AFA00EB800000EB800046
:1033680065686D00B0FBF5F57F4EA6FB05356D0968
:103378002D01FEF72BFA00EB800000EB800063685C
:103388005B00B0FBF3F9FEF721FA00EB800000EBDD
:10339800800063685B00B0FBF3F3A6FB03235B09C3
:1033A8004FF0640808FB1393DB003233A6FB0323BA
:1033B8005B095B0003F4F8731D44FEF707FA00EBA2
:1033C800800000EB800063685B00B0FBF3F9FEF758
:1033D800FDF900EB800000EB800063685B00B0FB48
:1033E800F3F3A6FB03235B0908FB13984FEAC8080D
:1033F80008F13208A6FB0836C6F342163544BD600C
:10340800BDE8F8832668594B9E4203D003F58063D4
:103418009E4254D1FEF7F2F900EB800000EB8000E9
:103428006568AD00B0FBF5F54F4FA7FB05356D0995
:103438002D01FEF7E3F900EB800000EB80006368E4
:103448009B00B0FBF3F8FEF7D9F900EB800000EB26
:10345800800063689B00B0FBF3F3A7FB03235B09C1
:103468004FF0640909FB13831B013233A7FB0323C5
:103478005B0903F0F0031D44FEF7C0F900EB800080
:1034880000EB800063689B00B0FBF3F8FEF7B6F929
:1034980000EB800000EB800063689B00B0FBF3F357
:1034A800A7FB03235B0909FB13831B013233A7FB2B
:1034B8000323C3F343131D44B560BDE8F883FEF747
:1034C80085F900EB800000EB80006568AD00B0FB7B
:1034D800F5F5254FA7FB05356D092D01FEF776F9A2
:1034E80000EB800000EB800063689B00B0FBF3F802
:1034F800FEF76CF900EB800000EB800063689B002E
:10350800B0FBF3F3A7FB03235B094FF0640909FB46
:1035180013831B013233A7FB03235B0903F0F0037A
:103528001D44FEF753F900EB800000EB8000636850
:103538009B00B0FBF3F8FEF749F900EB800000EBC5
:10354800800063689B00B0FBF3F3A7FB03235B09D0
:1035580009FB13831B013233A7FB0323C3F3431374
:103568001D44B560BDE8F8831F85EB51001001408C
:103578002DE9F04105460F4616469846069C1EE082
:10358800B4F1FF3F1BD02CB1FFF7B4FDC8EB00002E
:10359800844214D22A68D36823F4D073D3602A688B
:1035A800536923F001035361202385F8393085F8E6
:1035B8003A30002385F838300320BDE8F0812B68C5
:1035C8001B6837EA03030CBF01230023B342D7D09B
:1035D8000020BDE8F08100BF68B310B5044690F83C
:1035E800393013F0FF0F04D1002380F83830FDF78D
:1035F800A7FA242384F839302268D36823F40053C7
:10360800D3602046FFF71EFE2268136923F4904317
:1036180013612268536923F02A0353612268D3682F
:1036280043F40053D3600020E063202384F839304A
:1036380084F83A3010BD0120704700BF2DE9F041F1
:1036480082B01E4690F83930DBB2202B56D10446A2
:103658000D469046002953D0002A53D090F83830B0
:10366800012B51D0012380F838300023C363212374
:1036780080F83930FFF73EFD0746A4F82480A4F807
:10368800268027E0E38C9BB2013B9BB2E384A368CE
:10369800B3F5805F12D100963B4600228021204678
:1036A800FFF766FF90BB22682B88C3F308035360BB
:1036B80023690BB902350DE001350BE000963B4656
:1036C800002280212046FFF753FF08BB23682A7891
:1036D8005A600135E38C9BB2002BD3D100963B4650
:1036E800002240212046FFF743FF034690B92022DD
:1036F80084F83920002284F838200CE002230AE0FC
:10370800012308E0012306E0022304E0032302E08A
:10371800032300E00323184602B0BDE8F08100BF90
:1037280010B582B002AC04F8041D4FF6FF730122F5
:103738002146FFF783FF02B010BD00BF10B5044655
:103748000A2802D10D20FFF7F9FF074B1B6823B1A8
:10375800591C054A11601C7010BD044B1B680BB145
:103768002046984710BD00BF20000020C000002060
:1037780010B5044602E00134FFF7E0FF2078002886
:10378800F9D110BD2DE9F04F87B006468846741C64
:103798003078002800F0EC80252803D0FFF7CEFF12
:1037A8002646F4E7B31C7078302803D1F31CB078B0
:1037B800012706E02D2803D1F31CB078022700E08A
:1037C80000271E46002406E004EB84046300C418A6
:1037D800303C30780136A0F13002D2B2092AF3D950
:1037E8006C2801D04C2803D147F004073078013603
:1037F800002800F0BD80602803D9A0F12002D2B2D1
:1038080000E00246A2F14203162B3ED8DFE803F09F
:103818004030373D3D3D3D3D3D3D3D3D3D433D3DDA
:103828003D0C3D373D3D3A00D8F800A008F10408AA
:10383800002500E001351AF80530002BFAD103E025
:103848002020FFF77BFF4D4617F0020F04D105F14A
:103858000109A542F4D34D465046FFF789FF03E01E
:103868002020FFF76BFF3D466F1CA542F8D38EE77B
:1038780098F8000008F10408FFF760FF87E74FF0A9
:103888000A0C0AE04FF0100C07E0FFF757FF7EE73D
:103898004FF0020C01E04FF0080C17F0040F04D0B1
:1038A800D8F8003008F104080AE0442A04D1D8F80E
:1038B800003008F1040803E0D8F8003008F10408E3
:1038C800442A04D1002B02DA5B4247F010079946DC
:1038D8004FF0000E00E0AE46B9FBFCF10CFB119373
:1038E800DBB28946092B06D9782801D1272200E0C6
:1038F80007221A44D3B20EF10105303306AA7244E6
:1039080002F8183C09B1172DE5D917F0100F06D0A9
:1039180006AB1D442D2305F8183C0EF1020517F0DF
:10392800010F02D04FF0300B01E04FF0200BA946F9
:1039380003E05846FFF702FFD14617F0020F04D103
:1039480009F1010AA145F4D3D146013D06AB2B4448
:1039580013F8180CFFF7F2FE002DF6D103E0202033
:10396800FFF7ECFEA94609F10105A145F7D30EE7DB
:1039780007B0BDE8F08F00BF0FB400B583B004A94D
:1039880051F8040B0191FFF7FDFE03B05DF804EB5D
:1039980004B07047DFF834D0002103E00C4B5B58CB
:1039A800435004310B480C4B42189A42F6D30B4A49
:1039B80002E0002342F8043B094B9A42F9D3FDF791
:1039C800CBFB00F011F8FDF75BFA7047008001208F
:1039D800903A0008000000200400002004000020A5
:1039E800C4000020FEE7000070B50E4B0E4CE41A30
:1039F800A41000251E46A54204D056F82530984745
:103A08000135F8E700F016F8084C094BE41AA41041
:103A180000251E46A54204D056F8253098470135A2
:103A2800F8E770BD883A0008883A00088C3A000820
:103A3800883A0008F8B500BFF8BC08BC9E46704735
:0C3A4800F8B500BFF8BC08BC9E467047F3
:103A54005372632F6D61696E2E6300002564202507
:103A640064202564200000000A000000000000001B
:103A7400000000000102030406070809000000001A
:043A84000102030434
:043A8800050200082B
:043A8C00DD01000850
:043A90000024F4001A
:040000050800399D19
:00000001FF
