:020000040800F2
:1000000000800120ED0D00083D0E00083D0E0008A7
:100010003D0E00083D0E00083D0E000800000000E7
:100020000000000000000000000000003D0E00087D
:100030003D0E0008000000003D0E0008450B0008C2
:100040003D0E00083D0E00083D0E00083D0E000864
:100050003D0E00083D0E00083D0E00083D0E000854
:100060003D0E00083D0E00083D0E00083D0E000844
:100070003D0E00083D0E00083D0E00083D0E000834
:100080003D0E00083D0E00083D0E00080000000077
:100090000000000000000000000000003D0E00080D
:1000A0003D0E00083D0E00083D0E00083D0E000804
:1000B0003D0E00083D0E00083D0E00083D0E0008F4
:1000C0003D0E00083D0E00083D0E00083D0E0008E4
:1000D0003D0E00083D0E00083D0E00080000000027
:1000E0003D0E00083D0E00083D0E00080000000017
:1000F0000000000000000000000000003D0E0008AD
:10010000000000003D0E00083D0E00083D0E0008F6
:1001100000000000000000000000000000000000DF
:100120003D0E00083D0E00083D0E00083D0E000883
:100130003D0E00080000000000000000000000006C
:100140000000000000000000000000003D0E00085C
:100150003D0E00083D0E00083D0E00083D0E000853
:100160003D0E00083D0E00080000000000000000E9
:10017000000000000000000000000000000000007F
:10018000000000003D0E000800000000000000001C
:040190003D0E000818
:10019400044B05481B1A062B02D9044B03B118471C
:1001A400704700BF0700002004000020000000008A
:1001B40005490648091A891001EBD171491002D08A
:1001C400034B03B1184770470400002004000020CB
:1001D4000000000010B5064C237843B9FFF7D8FFA0
:1001E400044B13B10448AFF300800123237010BD06
:1001F40004000020000000008C0E000808B5084B25
:100204001BB108490848AFF300800848036813B9D4
:10021400BDE80840CCE7064B002BF9D09847F7E738
:1002240000000000080000208C0E000804000020DC
:100234000000000030B58BB000240194274B1A6BEA
:1002440042F004021A631A6B02F004020192019A4A
:1002540002941A6B42F080021A631A6B02F0800255
:100264000292029A03941A6B42F001021A631A6B07
:1002740002F001020392039A04941A6B42F0020200
:100284001A631B6B03F002030493049B144D224670
:100294002021284600F09EFD4FF400530593114B96
:1002A4000693079405A9104800F0C6FC0C23059397
:1002B40002230693079408940723099305A9284663
:1002C40000F0BAFC202305930123069307940894B5
:1002D40005A9284600F0B0FC0BB030BD0038024040
:1002E400000002400000211000080240FEE700BFA9
:1002F40000B595B0002201922A4B196C41F080514F
:1003040019641B6C03F080530193019B02922649EC
:100314000B6823F4404343F400430B600B6803F47D
:1003240040430293029B0221089101230B93102363
:100334000C930E910F9210934FF4A873119304230E
:1003440012930723139308A800F046F818B18921E3
:100354001648FFF7CBFF0F230393022104910023D8
:1003640005934FF480520692079303A800F06AFAAB
:1003740018B197210D48FFF7B9FF00F03BFB0C4B78
:10038400A3FB0030800900F0AFFB042000F0C2FBA7
:10039400002211464FF0FF3000F074FB15B05DF8F9
:1003A40004FB00BF0038024000700040A40E0008A7
:1003B400D34D621008B500F0DFFBFFF799FFFFF79C
:1003C40039FF2021034800F00BFD642000F0FCFB02
:1003D400F7E700BF0000024030B583B0044603686D
:1003E40013F0010F5AD09F4B9B6803F00C03042BAE
:1003F4000AD09C4B9B6803F00C03082B0DD1994B3E
:100404005B6813F4800F08D0964B1B6813F4003F0D
:1004140044D06368002B41D19DE16368B3F5803F0C
:1004240005D1904A136843F48033136015E0B3F5A3
:10043400A02F09D18B4B1A6842F480221A601A68E3
:1004440042F480321A6008E0864B1A6822F4803243
:100454001A601A6822F480221A6063687BB100F083
:10046400ADFB054605E000F0A9FB401B642800F243
:1004740074817C4B1B6813F4003FF4D00EE000F051
:100484009DFB054605E000F099FB401B642800F243
:100494006681744B1B6813F4003FF4D1236813F096
:1004A400020F5AD06F4B9B6813F00C0F0AD06D4BA0
:1004B4009B6803F00C03082B1BD16A4B5B6813F495
:1004C400800F16D1674B1B6813F0020F03D0E3684B
:1004D400012B40F046816348036823F0F801236947
:1004E400F82292FAA2F2B2FA82F293400B4303602A
:1004F40033E0E368FBB101225B4B1A6000F05EFB62
:10050400054605E000F05AFB401B022800F22B814F
:10051400544B1B6813F0020FF4D05248036823F0C5
:10052400F8012369F82292FAA2F2B2FA82F2934015
:100534000B43036011E000224B4B1A6000F03EFBBA
:10054400054605E000F03AFB401B022800F20D814D
:10055400444B1B6813F0020FF4D1236813F0080F07
:1005640026D0636993B10122404B1A6000F026FB48
:10057400054605E000F022FB401B022800F2F7804C
:10058400384B5B6F13F0020FF4D011E00022374BAD
:100594001A6000F013FB054605E000F00FFB401B5A
:1005A400022800F2E6802F4B5B6F13F0020FF4D1A8
:1005B400236813F0040F69D000230193294B1A6CAC
:1005C40042F080521A641B6C03F080530193019B28
:1005D400274A136843F48073136000F0EFFA05466A
:1005E40005E000F0EBFA401B022800F2C480204B27
:1005F4001B6813F4807FF4D0A368012B05D1194A3A
:10060400136F43F00103136714E0052B09D1154B55
:100614001A6F42F004021A671A6F42F001021A6755
:1006240008E0104B1A6F22F001021A671A6F22F0C9
:1006340004021A67A3688BB100F0C0FA054607E00C
:1006440000F0BCFA401B41F28833984200F29580D6
:10065400044B1B6F13F0020FF2D017E000F0AEFA58
:1006640005460EE00038024000004742800E474233
:100674000070004000F0A2FA401B41F28833984217
:100684007DD8454B1B6F13F0020FF3D1A369002BE8
:1006940077D0414A926802F00C02082A73D0022BE8
:1006A40046D100223D4B1A6000F088FA054604E06A
:1006B40000F084FA401B022867D8374B1B6813F0FC
:1006C400007FF5D1E169236A1943636A47F6C07272
:1006D40092FAA2F2B2FA82F293401943A36A5B0837
:1006E4005A1E4FF4403393FAA3F3B3FA83F302FA96
:1006F40003F30B43E26A4FF0706191FAA1F1B1FA8E
:1007040081F18A401343244A53600122234B1A6027
:1007140000F054FA044604E000F050FA001B0228EA
:1007240035D81D4B1B6813F0007FF5D0002031E055
:1007340000221A4B1A6000F041FA044604E000F06B
:100744003DFA001B022824D8134B1B6813F0007FCA
:10075400F5D100201EE001201CE003201AE0032054
:1007640018E0012016E0032014E0032012E0032027
:1007740010E003200EE003200CE003200AE0032035
:1007840008E0002006E0012004E0032002E003204A
:1007940000E0032003B030BD00380240600047424F
:1007A400254B9B6803F00C03042B3FD0082B01D08E
:1007B4002248704710B4204B586800F03F005B6833
:1007C40013F4800F10D01E4BB3FBF0F01A4B5A6891
:1007D40047F6C0710A4091FAA1F3B3FA83F322FAFF
:1007E40003F303FB00F310E0144BB3FBF0F0124BE4
:1007F4005A6847F6C07402EA040194FAA4F2B2FA01
:1008040082F221FA02F202FB00F30B4A506800F470
:1008140040324FF4403090FAA0F0B0FA80F022FA5F
:1008240000F001304000B3FBF0F001E004487047F1
:100834005DF8044B704700BF003802400024F40008
:1008440000127A0070B5674B1B6803F00F038B42EC
:1008540008D2CBB2634A1370136803F00F039942B2
:1008640040F0AE80036813F0020F06D05E4CA3681C
:1008740023F0F00283681343A3600D460446036823
:1008840013F0010F60D04268012A05D1564B1B6852
:1008940013F4003F0FD195E0931E012B05D8524B62
:1008A4001B6813F0007F06D18EE04F4B1B6813F0DA
:1008B400020F00F08B804C498B6823F00303134331
:1008C4008B6000F07BF906466368012B0ED106E0CD
:1008D40000F074F9801B41F28833984278D8424B77
:1008E4009B6803F00C03042BF2D12DE0022B0ED1F4
:1008F40006E000F063F9801B41F28833984269D81E
:10090400394B9B6803F00C03082BF2D11CE0032B3A
:1009140015D106E000F052F9801B41F28833984269
:100924005AD8314B9B6803F00C030C2BF2D10BE02B
:1009340000F044F9801B41F2883398424ED82A4B88
:100944009B6813F00C0FF3D1264B1B6803F00F03C5
:100954009D4207D2EAB2234B1A701B6803F00F03BF
:100964009D423DD1236813F0040F06D01E498B68C5
:1009740023F4E052E36813438B60236813F0080FF9
:1009840007D0194A936823F46043216943EAC103F9
:100994009360FFF705FF144B9B6803F0F002F0230C
:1009A40093FAA3F3B3FA83F322FA03F30F4AD35C63
:1009B400D8400F4B1860002000F0C8F8002070BD2C
:1009C400012070BD012070BD012070BD012070BDEB
:1009D400032070BD032070BD032070BD032070BDD3
:1009E400012070BD003C024000380240B00E0008F7
:1009F40000000020014B1868704700BF0000002071
:100A040008B5072000F02CF8002211466FF00B0007
:100A140000F038F8002211466FF00A0000F032F8B6
:100A2400002211466FF0090000F02CF80022114654
:100A34006FF0040000F026F8002211466FF0030066
:100A440000F020F8002211466FF0010000F01AF8BF
:100A5400002211464FF0FF3000F014F808BD00BF2B
:100A6400074AD36823F4E0631B041B0C000200F460
:100A7400E060184340F0BF6040F40030D06070473D
:100A840000ED00E030B4164BDB68C3F30223C3F17E
:100A94000704042C28BF04241D1D062D01D9DD1EC6
:100AA40000E00025012303FA04F4013C2140A9409D
:100AB400AB40013B1A400A43002806DA00F00F005D
:100AC4001201D2B2074B1A5407E01201D2B200F15C
:100AD400604000F5614080F8002330BC704700BFDF
:100AE40000ED00E014ED00E00138B0F1807F0AD29F
:100AF400064B5860F021064A82F8231000209860C3
:100B040007221A6070470120704700BF10E000E020
:100B140000ED00E0042805D1054A136843F00403FE
:100B240013607047024A136823F00403136070478C
:100B340010E000E0704700BF08B5FFF7FBFF08BDF9
:100B440008B500F033F8FFF7F7FF08BD10B5044609
:100B5400074B1B680748A0FB03308009FFF7C4FF5D
:100B6400002221464FF0FF30FFF78CFF002010BD1C
:100B740000000020D34D621008B50B4B1A6842F4F4
:100B840000721A601A6842F480621A601A6842F4A9
:100B940080721A600320FFF763FF0020FFF7D6FF7F
:100BA400FFF72EFF002008BD003C0240024A1368F4
:100BB40001331360704700BF20000020014B186808
:100BC400704700BF2000002030B583B00190FFF7CC
:100BD400F5FF0546019CB4F1FF3F00D00134FFF757
:100BE400EDFF401BA042FAD303B030BD0F49D1F84A
:100BF400883043F47003C1F888300D4B1A6842F012
:100C040001021A60002098601A6822F0847222F4AB
:100C140080321A60074A5A601A6822F480221A60E5
:100C2400D8604FF000638B60704700BF00ED00E0B8
:100C34000038024010300024F0B583B00024BBE03B
:100C44000123A3400A6803EA0205AB4240F0B380E3
:100C54004A68022A01D0122A10D1E608083650F850
:100C640026C004F0070297000F22BA402CEA020EB5
:100C74000A69BA404EEA020240F826200268670078
:100C84000326BE40F64302EA060E4A6802F0030257
:100C9400BA404EEA020202604A6802F1FF3EBEF127
:100CA400010F03D9112A01D0122A10D1826806EA51
:100CB400020ECA68BA404EEA02028260426822EA20
:100CC40003034A68C2F30012A2401A434260C36895
:100CD4001E408B68BB403343C3604B6813F0805F96
:100CE40069D000230193374B5A6C42F480425A6412
:100CF4005B6C03F480430193019BA608B21C324B46
:100D040053F8222004F003039B000F279F4022EA9C
:100D140007072E4A904211D002F5806290420FD00C
:100D240002F5806290420DD002F5806290420BD0B1
:100D340002F58062904209D1042208E0002206E014
:100D4400012204E0022202E0032200E0072202FA68
:100D540003F33B4302361C4A42F826301C4B1A6804
:100D6400EB4302EA03064F6817F4803F01D045EADB
:100D74000206174A1660526803EA02064F6817F41F
:100D8400003F01D045EA0206114A5660926803EA20
:100D940002064F6817F4801F01D045EA02060C4A88
:100DA4009660D26813404E6816F4001F01D045EADD
:100DB4000203074AD36001340F2C7FF641AF03B01E
:100DC400F0BD00BF0038024000380140000002407E
:100DD400003C01400AB18161704709048161704798
:100DE4004369594041617047DFF834D0002103E082
:100DF4000C4B5B58435004310B480C4B42189A423D
:100E0400F6D30B4A02E0002342F8043B094B9A4212
:100E1400F9D3FFF7EBFE00F011F8FFF7CBFA7047B8
:100E240000800120C80E00080000002004000020FB
:100E34000400002024000020FEE7000070B50E4BE3
:100E44000E4CE41AA41000251E46A54204D056F800
:100E5400253098470135F8E700F016F8084C094B9F
:100E6400E41AA41000251E46A54204D056F82530E5
:100E740098470135F8E770BDC00E0008C00E0008A1
:100E8400C40E0008C00E0008F8B500BFF8BC08BCCA
:100E94009E467047F8B500BFF8BC08BC9E46704734
:100EA4005372632F6D61696E2E63000000000000B1
:0C0EB4000000000001020304060708090A
:040EC0000102000823
:040EC400D901000848
:040EC8000024F4000E
:0400000508000DEDF5
:00000001FF
